{
  "contractName": "MyGovernor",
  "abi": [
    {
      "inputs": [
        {
          "internalType": "contract ERC20Votes",
          "name": "_token",
          "type": "address"
        },
        {
          "internalType": "contract TimelockController",
          "name": "_timelock",
          "type": "address"
        }
      ],
      "stateMutability": "nonpayable",
      "type": "constructor"
    },
    {
      "anonymous": false,
      "inputs": [
        {
          "indexed": false,
          "internalType": "uint256",
          "name": "proposalId",
          "type": "uint256"
        }
      ],
      "name": "ProposalCanceled",
      "type": "event"
    },
    {
      "anonymous": false,
      "inputs": [
        {
          "indexed": false,
          "internalType": "uint256",
          "name": "proposalId",
          "type": "uint256"
        },
        {
          "indexed": false,
          "internalType": "address",
          "name": "proposer",
          "type": "address"
        },
        {
          "indexed": false,
          "internalType": "address[]",
          "name": "targets",
          "type": "address[]"
        },
        {
          "indexed": false,
          "internalType": "uint256[]",
          "name": "values",
          "type": "uint256[]"
        },
        {
          "indexed": false,
          "internalType": "string[]",
          "name": "signatures",
          "type": "string[]"
        },
        {
          "indexed": false,
          "internalType": "bytes[]",
          "name": "calldatas",
          "type": "bytes[]"
        },
        {
          "indexed": false,
          "internalType": "uint256",
          "name": "startBlock",
          "type": "uint256"
        },
        {
          "indexed": false,
          "internalType": "uint256",
          "name": "endBlock",
          "type": "uint256"
        },
        {
          "indexed": false,
          "internalType": "string",
          "name": "description",
          "type": "string"
        }
      ],
      "name": "ProposalCreated",
      "type": "event"
    },
    {
      "anonymous": false,
      "inputs": [
        {
          "indexed": false,
          "internalType": "uint256",
          "name": "proposalId",
          "type": "uint256"
        }
      ],
      "name": "ProposalExecuted",
      "type": "event"
    },
    {
      "anonymous": false,
      "inputs": [
        {
          "indexed": false,
          "internalType": "uint256",
          "name": "proposalId",
          "type": "uint256"
        },
        {
          "indexed": false,
          "internalType": "uint256",
          "name": "eta",
          "type": "uint256"
        }
      ],
      "name": "ProposalQueued",
      "type": "event"
    },
    {
      "anonymous": false,
      "inputs": [
        {
          "indexed": false,
          "internalType": "uint256",
          "name": "oldQuorumNumerator",
          "type": "uint256"
        },
        {
          "indexed": false,
          "internalType": "uint256",
          "name": "newQuorumNumerator",
          "type": "uint256"
        }
      ],
      "name": "QuorumNumeratorUpdated",
      "type": "event"
    },
    {
      "anonymous": false,
      "inputs": [
        {
          "indexed": false,
          "internalType": "address",
          "name": "oldTimelock",
          "type": "address"
        },
        {
          "indexed": false,
          "internalType": "address",
          "name": "newTimelock",
          "type": "address"
        }
      ],
      "name": "TimelockChange",
      "type": "event"
    },
    {
      "anonymous": false,
      "inputs": [
        {
          "indexed": true,
          "internalType": "address",
          "name": "voter",
          "type": "address"
        },
        {
          "indexed": false,
          "internalType": "uint256",
          "name": "proposalId",
          "type": "uint256"
        },
        {
          "indexed": false,
          "internalType": "uint8",
          "name": "support",
          "type": "uint8"
        },
        {
          "indexed": false,
          "internalType": "uint256",
          "name": "weight",
          "type": "uint256"
        },
        {
          "indexed": false,
          "internalType": "string",
          "name": "reason",
          "type": "string"
        }
      ],
      "name": "VoteCast",
      "type": "event"
    },
    {
      "inputs": [],
      "name": "BALLOT_TYPEHASH",
      "outputs": [
        {
          "internalType": "bytes32",
          "name": "",
          "type": "bytes32"
        }
      ],
      "stateMutability": "view",
      "type": "function",
      "constant": true
    },
    {
      "inputs": [],
      "name": "COUNTING_MODE",
      "outputs": [
        {
          "internalType": "string",
          "name": "",
          "type": "string"
        }
      ],
      "stateMutability": "pure",
      "type": "function",
      "constant": true
    },
    {
      "inputs": [
        {
          "internalType": "uint256",
          "name": "proposalId",
          "type": "uint256"
        }
      ],
      "name": "cancel",
      "outputs": [],
      "stateMutability": "nonpayable",
      "type": "function"
    },
    {
      "inputs": [
        {
          "internalType": "uint256",
          "name": "proposalId",
          "type": "uint256"
        },
        {
          "internalType": "uint8",
          "name": "support",
          "type": "uint8"
        }
      ],
      "name": "castVote",
      "outputs": [
        {
          "internalType": "uint256",
          "name": "",
          "type": "uint256"
        }
      ],
      "stateMutability": "nonpayable",
      "type": "function"
    },
    {
      "inputs": [
        {
          "internalType": "uint256",
          "name": "proposalId",
          "type": "uint256"
        },
        {
          "internalType": "uint8",
          "name": "support",
          "type": "uint8"
        },
        {
          "internalType": "uint8",
          "name": "v",
          "type": "uint8"
        },
        {
          "internalType": "bytes32",
          "name": "r",
          "type": "bytes32"
        },
        {
          "internalType": "bytes32",
          "name": "s",
          "type": "bytes32"
        }
      ],
      "name": "castVoteBySig",
      "outputs": [
        {
          "internalType": "uint256",
          "name": "",
          "type": "uint256"
        }
      ],
      "stateMutability": "nonpayable",
      "type": "function"
    },
    {
      "inputs": [
        {
          "internalType": "uint256",
          "name": "proposalId",
          "type": "uint256"
        },
        {
          "internalType": "uint8",
          "name": "support",
          "type": "uint8"
        },
        {
          "internalType": "string",
          "name": "reason",
          "type": "string"
        }
      ],
      "name": "castVoteWithReason",
      "outputs": [
        {
          "internalType": "uint256",
          "name": "",
          "type": "uint256"
        }
      ],
      "stateMutability": "nonpayable",
      "type": "function"
    },
    {
      "inputs": [
        {
          "internalType": "address[]",
          "name": "targets",
          "type": "address[]"
        },
        {
          "internalType": "uint256[]",
          "name": "values",
          "type": "uint256[]"
        },
        {
          "internalType": "bytes[]",
          "name": "calldatas",
          "type": "bytes[]"
        },
        {
          "internalType": "bytes32",
          "name": "descriptionHash",
          "type": "bytes32"
        }
      ],
      "name": "execute",
      "outputs": [
        {
          "internalType": "uint256",
          "name": "",
          "type": "uint256"
        }
      ],
      "stateMutability": "payable",
      "type": "function",
      "payable": true
    },
    {
      "inputs": [
        {
          "internalType": "uint256",
          "name": "proposalId",
          "type": "uint256"
        }
      ],
      "name": "execute",
      "outputs": [],
      "stateMutability": "payable",
      "type": "function",
      "payable": true
    },
    {
      "inputs": [
        {
          "internalType": "uint256",
          "name": "proposalId",
          "type": "uint256"
        }
      ],
      "name": "getActions",
      "outputs": [
        {
          "internalType": "address[]",
          "name": "targets",
          "type": "address[]"
        },
        {
          "internalType": "uint256[]",
          "name": "values",
          "type": "uint256[]"
        },
        {
          "internalType": "string[]",
          "name": "signatures",
          "type": "string[]"
        },
        {
          "internalType": "bytes[]",
          "name": "calldatas",
          "type": "bytes[]"
        }
      ],
      "stateMutability": "view",
      "type": "function",
      "constant": true
    },
    {
      "inputs": [
        {
          "internalType": "uint256",
          "name": "proposalId",
          "type": "uint256"
        },
        {
          "internalType": "address",
          "name": "voter",
          "type": "address"
        }
      ],
      "name": "getReceipt",
      "outputs": [
        {
          "components": [
            {
              "internalType": "bool",
              "name": "hasVoted",
              "type": "bool"
            },
            {
              "internalType": "uint8",
              "name": "support",
              "type": "uint8"
            },
            {
              "internalType": "uint96",
              "name": "votes",
              "type": "uint96"
            }
          ],
          "internalType": "struct IGovernorCompatibilityBravo.Receipt",
          "name": "",
          "type": "tuple"
        }
      ],
      "stateMutability": "view",
      "type": "function",
      "constant": true
    },
    {
      "inputs": [
        {
          "internalType": "uint256",
          "name": "proposalId",
          "type": "uint256"
        },
        {
          "internalType": "address",
          "name": "account",
          "type": "address"
        }
      ],
      "name": "hasVoted",
      "outputs": [
        {
          "internalType": "bool",
          "name": "",
          "type": "bool"
        }
      ],
      "stateMutability": "view",
      "type": "function",
      "constant": true
    },
    {
      "inputs": [
        {
          "internalType": "address[]",
          "name": "targets",
          "type": "address[]"
        },
        {
          "internalType": "uint256[]",
          "name": "values",
          "type": "uint256[]"
        },
        {
          "internalType": "bytes[]",
          "name": "calldatas",
          "type": "bytes[]"
        },
        {
          "internalType": "bytes32",
          "name": "descriptionHash",
          "type": "bytes32"
        }
      ],
      "name": "hashProposal",
      "outputs": [
        {
          "internalType": "uint256",
          "name": "",
          "type": "uint256"
        }
      ],
      "stateMutability": "pure",
      "type": "function",
      "constant": true
    },
    {
      "inputs": [],
      "name": "name",
      "outputs": [
        {
          "internalType": "string",
          "name": "",
          "type": "string"
        }
      ],
      "stateMutability": "view",
      "type": "function",
      "constant": true
    },
    {
      "inputs": [
        {
          "internalType": "uint256",
          "name": "proposalId",
          "type": "uint256"
        }
      ],
      "name": "proposalDeadline",
      "outputs": [
        {
          "internalType": "uint256",
          "name": "",
          "type": "uint256"
        }
      ],
      "stateMutability": "view",
      "type": "function",
      "constant": true
    },
    {
      "inputs": [
        {
          "internalType": "uint256",
          "name": "proposalId",
          "type": "uint256"
        }
      ],
      "name": "proposalEta",
      "outputs": [
        {
          "internalType": "uint256",
          "name": "",
          "type": "uint256"
        }
      ],
      "stateMutability": "view",
      "type": "function",
      "constant": true
    },
    {
      "inputs": [
        {
          "internalType": "uint256",
          "name": "proposalId",
          "type": "uint256"
        }
      ],
      "name": "proposalSnapshot",
      "outputs": [
        {
          "internalType": "uint256",
          "name": "",
          "type": "uint256"
        }
      ],
      "stateMutability": "view",
      "type": "function",
      "constant": true
    },
    {
      "inputs": [
        {
          "internalType": "uint256",
          "name": "proposalId",
          "type": "uint256"
        }
      ],
      "name": "proposals",
      "outputs": [
        {
          "internalType": "uint256",
          "name": "id",
          "type": "uint256"
        },
        {
          "internalType": "address",
          "name": "proposer",
          "type": "address"
        },
        {
          "internalType": "uint256",
          "name": "eta",
          "type": "uint256"
        },
        {
          "internalType": "uint256",
          "name": "startBlock",
          "type": "uint256"
        },
        {
          "internalType": "uint256",
          "name": "endBlock",
          "type": "uint256"
        },
        {
          "internalType": "uint256",
          "name": "forVotes",
          "type": "uint256"
        },
        {
          "internalType": "uint256",
          "name": "againstVotes",
          "type": "uint256"
        },
        {
          "internalType": "uint256",
          "name": "abstainVotes",
          "type": "uint256"
        },
        {
          "internalType": "bool",
          "name": "canceled",
          "type": "bool"
        },
        {
          "internalType": "bool",
          "name": "executed",
          "type": "bool"
        }
      ],
      "stateMutability": "view",
      "type": "function",
      "constant": true
    },
    {
      "inputs": [
        {
          "internalType": "address[]",
          "name": "targets",
          "type": "address[]"
        },
        {
          "internalType": "uint256[]",
          "name": "values",
          "type": "uint256[]"
        },
        {
          "internalType": "bytes[]",
          "name": "calldatas",
          "type": "bytes[]"
        },
        {
          "internalType": "bytes32",
          "name": "descriptionHash",
          "type": "bytes32"
        }
      ],
      "name": "queue",
      "outputs": [
        {
          "internalType": "uint256",
          "name": "",
          "type": "uint256"
        }
      ],
      "stateMutability": "nonpayable",
      "type": "function"
    },
    {
      "inputs": [
        {
          "internalType": "uint256",
          "name": "proposalId",
          "type": "uint256"
        }
      ],
      "name": "queue",
      "outputs": [],
      "stateMutability": "nonpayable",
      "type": "function"
    },
    {
      "inputs": [],
      "name": "quorumDenominator",
      "outputs": [
        {
          "internalType": "uint256",
          "name": "",
          "type": "uint256"
        }
      ],
      "stateMutability": "view",
      "type": "function",
      "constant": true
    },
    {
      "inputs": [],
      "name": "quorumNumerator",
      "outputs": [
        {
          "internalType": "uint256",
          "name": "",
          "type": "uint256"
        }
      ],
      "stateMutability": "view",
      "type": "function",
      "constant": true
    },
    {
      "inputs": [],
      "name": "quorumVotes",
      "outputs": [
        {
          "internalType": "uint256",
          "name": "",
          "type": "uint256"
        }
      ],
      "stateMutability": "view",
      "type": "function",
      "constant": true
    },
    {
      "inputs": [
        {
          "internalType": "address",
          "name": "target",
          "type": "address"
        },
        {
          "internalType": "uint256",
          "name": "value",
          "type": "uint256"
        },
        {
          "internalType": "bytes",
          "name": "data",
          "type": "bytes"
        }
      ],
      "name": "relay",
      "outputs": [],
      "stateMutability": "nonpayable",
      "type": "function"
    },
    {
      "inputs": [],
      "name": "timelock",
      "outputs": [
        {
          "internalType": "address",
          "name": "",
          "type": "address"
        }
      ],
      "stateMutability": "view",
      "type": "function",
      "constant": true
    },
    {
      "inputs": [],
      "name": "token",
      "outputs": [
        {
          "internalType": "contract IVotes",
          "name": "",
          "type": "address"
        }
      ],
      "stateMutability": "view",
      "type": "function",
      "constant": true
    },
    {
      "inputs": [
        {
          "internalType": "uint256",
          "name": "newQuorumNumerator",
          "type": "uint256"
        }
      ],
      "name": "updateQuorumNumerator",
      "outputs": [],
      "stateMutability": "nonpayable",
      "type": "function"
    },
    {
      "inputs": [
        {
          "internalType": "contract TimelockController",
          "name": "newTimelock",
          "type": "address"
        }
      ],
      "name": "updateTimelock",
      "outputs": [],
      "stateMutability": "nonpayable",
      "type": "function"
    },
    {
      "inputs": [],
      "name": "version",
      "outputs": [
        {
          "internalType": "string",
          "name": "",
          "type": "string"
        }
      ],
      "stateMutability": "view",
      "type": "function",
      "constant": true
    },
    {
      "stateMutability": "payable",
      "type": "receive",
      "payable": true
    },
    {
      "inputs": [],
      "name": "votingDelay",
      "outputs": [
        {
          "internalType": "uint256",
          "name": "",
          "type": "uint256"
        }
      ],
      "stateMutability": "pure",
      "type": "function",
      "constant": true
    },
    {
      "inputs": [],
      "name": "votingPeriod",
      "outputs": [
        {
          "internalType": "uint256",
          "name": "",
          "type": "uint256"
        }
      ],
      "stateMutability": "pure",
      "type": "function",
      "constant": true
    },
    {
      "inputs": [],
      "name": "proposalThreshold",
      "outputs": [
        {
          "internalType": "uint256",
          "name": "",
          "type": "uint256"
        }
      ],
      "stateMutability": "pure",
      "type": "function",
      "constant": true
    },
    {
      "inputs": [
        {
          "internalType": "uint256",
          "name": "blockNumber",
          "type": "uint256"
        }
      ],
      "name": "quorum",
      "outputs": [
        {
          "internalType": "uint256",
          "name": "",
          "type": "uint256"
        }
      ],
      "stateMutability": "view",
      "type": "function",
      "constant": true
    },
    {
      "inputs": [
        {
          "internalType": "address",
          "name": "account",
          "type": "address"
        },
        {
          "internalType": "uint256",
          "name": "blockNumber",
          "type": "uint256"
        }
      ],
      "name": "getVotes",
      "outputs": [
        {
          "internalType": "uint256",
          "name": "",
          "type": "uint256"
        }
      ],
      "stateMutability": "view",
      "type": "function",
      "constant": true
    },
    {
      "inputs": [
        {
          "internalType": "uint256",
          "name": "proposalId",
          "type": "uint256"
        }
      ],
      "name": "state",
      "outputs": [
        {
          "internalType": "enum IGovernor.ProposalState",
          "name": "",
          "type": "uint8"
        }
      ],
      "stateMutability": "view",
      "type": "function",
      "constant": true
    },
    {
      "inputs": [
        {
          "internalType": "address[]",
          "name": "targets",
          "type": "address[]"
        },
        {
          "internalType": "uint256[]",
          "name": "values",
          "type": "uint256[]"
        },
        {
          "internalType": "bytes[]",
          "name": "calldatas",
          "type": "bytes[]"
        },
        {
          "internalType": "string",
          "name": "description",
          "type": "string"
        }
      ],
      "name": "propose",
      "outputs": [
        {
          "internalType": "uint256",
          "name": "",
          "type": "uint256"
        }
      ],
      "stateMutability": "nonpayable",
      "type": "function"
    },
    {
      "inputs": [
        {
          "internalType": "address[]",
          "name": "targets",
          "type": "address[]"
        },
        {
          "internalType": "uint256[]",
          "name": "values",
          "type": "uint256[]"
        },
        {
          "internalType": "string[]",
          "name": "signatures",
          "type": "string[]"
        },
        {
          "internalType": "bytes[]",
          "name": "calldatas",
          "type": "bytes[]"
        },
        {
          "internalType": "string",
          "name": "description",
          "type": "string"
        }
      ],
      "name": "propose",
      "outputs": [
        {
          "internalType": "uint256",
          "name": "",
          "type": "uint256"
        }
      ],
      "stateMutability": "nonpayable",
      "type": "function"
    },
    {
      "inputs": [
        {
          "internalType": "bytes4",
          "name": "interfaceId",
          "type": "bytes4"
        }
      ],
      "name": "supportsInterface",
      "outputs": [
        {
          "internalType": "bool",
          "name": "",
          "type": "bool"
        }
      ],
      "stateMutability": "view",
      "type": "function",
      "constant": true
    }
  ],
  "bytecode": "0x6101606040523480156200001257600080fd5b506040516200730a3803806200730a8339818101604052810190620000389190620004fd565b806004836040518060400160405280600a81526020017f4d79476f7665726e6f72000000000000000000000000000000000000000000008152508062000083620001b160201b60201c565b60008280519060200120905060008280519060200120905060007f8b73c3c69bb8fe3d512ecc4cf759cc79239f7b179b0ffacaa9a75d522b39400f90508260e081815250508161010081815250504660a08181525050620000ec818484620001ee60201b60201c565b608081815250503073ffffffffffffffffffffffffffffffffffffffff1660c08173ffffffffffffffffffffffffffffffffffffffff1681525050806101208181525050505050505080600090805190602001906200014d92919062000376565b50508073ffffffffffffffffffffffffffffffffffffffff166101408173ffffffffffffffffffffffffffffffffffffffff16815250505062000196816200022a60201b60201c565b50620001a881620002cc60201b60201c565b50505062000776565b60606040518060400160405280600181526020017f3100000000000000000000000000000000000000000000000000000000000000815250905090565b600083838346306040516020016200020b9594939291906200058b565b6040516020818303038152906040528051906020012090509392505050565b6200023a6200036d60201b60201c565b8111156200027f576040517f08c379a0000000000000000000000000000000000000000000000000000000008152600401620002769062000695565b60405180910390fd5b60006003549050816003819055507f0553476bf02ef2726e8ce5ced78d63e26e602e4a2257b1f559418e24b46339978183604051620002c0929190620006b7565b60405180910390a15050565b7f08f74ea46ef7894f65eabfb5e6e695de773a000b47c529ab559178069b226401600460009054906101000a900473ffffffffffffffffffffffffffffffffffffffff168260405162000321929190620006e4565b60405180910390a180600460006101000a81548173ffffffffffffffffffffffffffffffffffffffff021916908373ffffffffffffffffffffffffffffffffffffffff16021790555050565b60006064905090565b828054620003849062000740565b90600052602060002090601f016020900481019282620003a85760008555620003f4565b82601f10620003c357805160ff1916838001178555620003f4565b82800160010185558215620003f4579182015b82811115620003f3578251825591602001919060010190620003d6565b5b50905062000403919062000407565b5090565b5b808211156200042257600081600090555060010162000408565b5090565b600080fd5b600073ffffffffffffffffffffffffffffffffffffffff82169050919050565b600062000458826200042b565b9050919050565b60006200046c826200044b565b9050919050565b6200047e816200045f565b81146200048a57600080fd5b50565b6000815190506200049e8162000473565b92915050565b6000620004b1826200042b565b9050919050565b6000620004c582620004a4565b9050919050565b620004d781620004b8565b8114620004e357600080fd5b50565b600081519050620004f781620004cc565b92915050565b6000806040838503121562000517576200051662000426565b5b600062000527858286016200048d565b92505060206200053a85828601620004e6565b9150509250929050565b6000819050919050565b620005598162000544565b82525050565b6000819050919050565b62000574816200055f565b82525050565b62000585816200044b565b82525050565b600060a082019050620005a260008301886200054e565b620005b160208301876200054e565b620005c060408301866200054e565b620005cf606083018562000569565b620005de60808301846200057a565b9695505050505050565b600082825260208201905092915050565b7f476f7665726e6f72566f74657351756f72756d4672616374696f6e3a2071756f60008201527f72756d4e756d657261746f72206f7665722071756f72756d44656e6f6d696e6160208201527f746f720000000000000000000000000000000000000000000000000000000000604082015250565b60006200067d604383620005e8565b91506200068a82620005f9565b606082019050919050565b60006020820190508181036000830152620006b0816200066e565b9050919050565b6000604082019050620006ce600083018562000569565b620006dd602083018462000569565b9392505050565b6000604082019050620006fb60008301856200057a565b6200070a60208301846200057a565b9392505050565b7f4e487b7100000000000000000000000000000000000000000000000000000000600052602260045260246000fd5b600060028204905060018216806200075957607f821691505b6020821081141562000770576200076f62000711565b5b50919050565b60805160a05160c05160e051610100516101205161014051616b2b620007df6000396000818161205001528181612b9f0152612c5501526000612ece01526000612f1001526000612eef01526000612e2401526000612e7a01526000612ea30152616b2b6000f3fe60806040526004361061021e5760003560e01c80637d5e81e211610123578063d33219b4116100ab578063e23a9a521161006f578063e23a9a52146108de578063eb9019d41461091b578063f8ce560a14610958578063fc0c546a14610995578063fe0d94c1146109c057610264565b8063d33219b4146107f7578063da95691a14610822578063dd4e2ba51461085f578063ddf0b0091461088a578063deaaa7cc146108b357610264565b8063ab58fb8e116100f2578063ab58fb8e146106ec578063b58131b014610729578063c01f9e3714610754578063c28bc2fa14610791578063c59057e4146107ba57610264565b80637d5e81e21461063057806397c3d3341461066d578063a7713a7014610698578063a890c910146106c357610264565b8063328dd982116101a657806340e58ee51161017557806340e58ee514610525578063438596321461054e57806354fd4d501461058b57806356781388146105b65780637b3c71d3146105f357610264565b8063328dd982146104405780633932abb1146104805780633bccf4fd146104ab5780633e4f49e6146104e857610264565b806306fdde03116101ed57806306fdde0314610340578063160cbed71461036b57806324bc1a64146103a85780632656227d146103d35780632d63f6931461040357610264565b8063013cf08b1461026957806301ffc9a7146102af57806302a251a3146102ec57806306f3f9e61461031757610264565b36610264573073ffffffffffffffffffffffffffffffffffffffff166102426109dc565b73ffffffffffffffffffffffffffffffffffffffff161461026257600080fd5b005b600080fd5b34801561027557600080fd5b50610290600480360381019061028b919061427f565b6109eb565b6040516102a69a99989796959493929190614317565b60405180910390f35b3480156102bb57600080fd5b506102d660048036038101906102d1919061440b565b610ae0565b6040516102e39190614438565b60405180910390f35b3480156102f857600080fd5b50610301610af2565b60405161030e9190614453565b60405180910390f35b34801561032357600080fd5b5061033e6004803603810190610339919061427f565b610afc565b005b34801561034c57600080fd5b50610355610b84565b6040516103629190614507565b60405180910390f35b34801561037757600080fd5b50610392600480360381019061038d919061492c565b610c16565b60405161039f9190614453565b60405180910390f35b3480156103b457600080fd5b506103bd610ed0565b6040516103ca9190614453565b60405180910390f35b6103ed60048036038101906103e8919061492c565b610eec565b6040516103fa9190614453565b60405180910390f35b34801561040f57600080fd5b5061042a6004803603810190610425919061427f565b61101f565b6040516104379190614453565b60405180910390f35b34801561044c57600080fd5b506104676004803603810190610462919061427f565b61108d565b6040516104779493929190614d86565b60405180910390f35b34801561048c57600080fd5b5061049561134a565b6040516104a29190614453565b60405180910390f35b3480156104b757600080fd5b506104d260048036038101906104cd9190614e20565b611354565b6040516104df9190614453565b60405180910390f35b3480156104f457600080fd5b5061050f600480360381019061050a919061427f565b6113de565b60405161051c9190614f12565b60405180910390f35b34801561053157600080fd5b5061054c6004803603810190610547919061427f565b6113f0565b005b34801561055a57600080fd5b5061057560048036038101906105709190614f2d565b611788565b6040516105829190614438565b60405180910390f35b34801561059757600080fd5b506105a06117f6565b6040516105ad9190614507565b60405180910390f35b3480156105c257600080fd5b506105dd60048036038101906105d89190614f6d565b611833565b6040516105ea9190614453565b60405180910390f35b3480156105ff57600080fd5b5061061a60048036038101906106159190615008565b611864565b6040516106279190614453565b60405180910390f35b34801561063c57600080fd5b506106576004803603810190610652919061511d565b6118cc565b6040516106649190614453565b60405180910390f35b34801561067957600080fd5b506106826118e4565b60405161068f9190614453565b60405180910390f35b3480156106a457600080fd5b506106ad6118ed565b6040516106ba9190614453565b60405180910390f35b3480156106cf57600080fd5b506106ea60048036038101906106e59190615244565b6118f7565b005b3480156106f857600080fd5b50610713600480360381019061070e919061427f565b61197f565b6040516107209190614453565b60405180910390f35b34801561073557600080fd5b5061073e611a4c565b60405161074b9190614453565b60405180910390f35b34801561076057600080fd5b5061077b6004803603810190610776919061427f565b611a51565b6040516107889190614453565b60405180910390f35b34801561079d57600080fd5b506107b860048036038101906107b391906152c7565b611abf565b005b3480156107c657600080fd5b506107e160048036038101906107dc919061492c565b611b91565b6040516107ee9190614453565b60405180910390f35b34801561080357600080fd5b5061080c611bcd565b604051610819919061533b565b60405180910390f35b34801561082e57600080fd5b5061084960048036038101906108449190615437565b611bf7565b6040516108569190614453565b60405180910390f35b34801561086b57600080fd5b50610874611c2e565b6040516108819190614507565b60405180910390f35b34801561089657600080fd5b506108b160048036038101906108ac919061427f565b611c6b565b005b3480156108bf57600080fd5b506108c8611f20565b6040516108d5919061554d565b60405180910390f35b3480156108ea57600080fd5b5061090560048036038101906109009190614f2d565b611f44565b60405161091291906155ef565b60405180910390f35b34801561092757600080fd5b50610942600480360381019061093d919061560a565b612028565b60405161094f9190614453565b60405180910390f35b34801561096457600080fd5b5061097f600480360381019061097a919061427f565b61203c565b60405161098c9190614453565b60405180910390f35b3480156109a157600080fd5b506109aa61204e565b6040516109b791906156a9565b60405180910390f35b6109da60048036038101906109d5919061427f565b612072565b005b60006109e6612327565b905090565b6000806000806000806000806000808a9950610a068b61197f565b9750610a118b61101f565b9650610a1c8b611a51565b95506000600260008d815260200190815260200160002090508060000160009054906101000a900473ffffffffffffffffffffffffffffffffffffffff1699508060050154955080600601549450806007015493506000610a7c8d6113de565b905060026007811115610a9257610a91614e9b565b5b816007811115610aa557610aa4614e9b565b5b149350600780811115610abb57610aba614e9b565b5b816007811115610ace57610acd614e9b565b5b14925050509193959799509193959799565b6000610aeb82612351565b9050919050565b600061b3cb905090565b610b046109dc565b73ffffffffffffffffffffffffffffffffffffffff16610b226123cb565b73ffffffffffffffffffffffffffffffffffffffff1614610b78576040517f08c379a0000000000000000000000000000000000000000000000000000000008152600401610b6f90615710565b60405180910390fd5b610b81816123d3565b50565b606060008054610b939061575f565b80601f0160208091040260200160405190810160405280929190818152602001828054610bbf9061575f565b8015610c0c5780601f10610be157610100808354040283529160200191610c0c565b820191906000526020600020905b815481529060010190602001808311610bef57829003601f168201915b5050505050905090565b600080610c2586868686611b91565b905060046007811115610c3b57610c3a614e9b565b5b610c44826113de565b6007811115610c5657610c55614e9b565b5b14610c96576040517f08c379a0000000000000000000000000000000000000000000000000000000008152600401610c8d90615803565b60405180910390fd5b6000600460009054906101000a900473ffffffffffffffffffffffffffffffffffffffff1673ffffffffffffffffffffffffffffffffffffffff1663f27a0c926040518163ffffffff1660e01b8152600401602060405180830381865afa158015610d05573d6000803e3d6000fd5b505050506040513d601f19601f82011682018060405250810190610d299190615838565b9050600460009054906101000a900473ffffffffffffffffffffffffffffffffffffffff1673ffffffffffffffffffffffffffffffffffffffff1663b1c5f4278888886000896040518663ffffffff1660e01b8152600401610d8f9594939291906158ad565b602060405180830381865afa158015610dac573d6000803e3d6000fd5b505050506040513d601f19601f82011682018060405250810190610dd0919061592a565b6005600084815260200190815260200160002081905550600460009054906101000a900473ffffffffffffffffffffffffffffffffffffffff1673ffffffffffffffffffffffffffffffffffffffff16638f2a0bb0888888600089876040518763ffffffff1660e01b8152600401610e4d96959493929190615957565b600060405180830381600087803b158015610e6757600080fd5b505af1158015610e7b573d6000803e3d6000fd5b505050507f9a2e42fd6722813d69113e7d0079d3d940171428df7373df9c7f7617cfda2892828242610ead91906159fc565b604051610ebb929190615a52565b60405180910390a18192505050949350505050565b6000610ee7600143610ee29190615a7b565b61203c565b905090565b600080610efb86868686611b91565b90506000610f08826113de565b905060046007811115610f1e57610f1d614e9b565b5b816007811115610f3157610f30614e9b565b5b1480610f61575060056007811115610f4c57610f4b614e9b565b5b816007811115610f5f57610f5e614e9b565b5b145b610fa0576040517f08c379a0000000000000000000000000000000000000000000000000000000008152600401610f9790615803565b60405180910390fd5b600180600084815260200190815260200160002060020160006101000a81548160ff0219169083151502179055507f712ae1383f79ac853f8d882153778e0260ef8f03b504e2866e0593e04d2b291f82604051610ffd9190614453565b60405180910390a16110128288888888612468565b8192505050949350505050565b600061107c600160008481526020019081526020016000206000016040518060200160405290816000820160009054906101000a900467ffffffffffffffff1667ffffffffffffffff1667ffffffffffffffff168152505061247c565b67ffffffffffffffff169050919050565b6060806060806000600260008781526020019081526020016000209050806001018160020182600301836004018380548060200260200160405190810160405280929190818152602001828054801561113b57602002820191906000526020600020905b8160009054906101000a900473ffffffffffffffffffffffffffffffffffffffff1673ffffffffffffffffffffffffffffffffffffffff16815260200190600101908083116110f1575b505050505093508280548060200260200160405190810160405280929190818152602001828054801561118d57602002820191906000526020600020905b815481526020019060010190808311611179575b5050505050925081805480602002602001604051908101604052809291908181526020016000905b828210156112615783829060005260206000200180546111d49061575f565b80601f01602080910402602001604051908101604052809291908181526020018280546112009061575f565b801561124d5780601f106112225761010080835404028352916020019161124d565b820191906000526020600020905b81548152906001019060200180831161123057829003601f168201915b5050505050815260200190600101906111b5565b50505050915080805480602002602001604051908101604052809291908181526020016000905b828210156113345783829060005260206000200180546112a79061575f565b80601f01602080910402602001604051908101604052809291908181526020018280546112d39061575f565b80156113205780601f106112f557610100808354040283529160200191611320565b820191906000526020600020905b81548152906001019060200180831161130357829003601f168201915b505050505081526020019060010190611288565b5050505090509450945094509450509193509193565b60006119af905090565b6000806113b56113ad7f150214d74d59b7d1e90c73fc22ef3d991dd0a76b046543d4d80ab92d2a50328f898960405160200161139293929190615abe565b6040516020818303038152906040528051906020012061248a565b8686866124a4565b90506113d2878288604051806020016040528060008152506124cf565b91505095945050505050565b60006113e982612623565b9050919050565b60006002600083815260200190815260200160002090508060000160009054906101000a900473ffffffffffffffffffffffffffffffffffffffff1673ffffffffffffffffffffffffffffffffffffffff1661144a6123cb565b73ffffffffffffffffffffffffffffffffffffffff1614806114ab575061146f611a4c565b6114a98260000160009054906101000a900473ffffffffffffffffffffffffffffffffffffffff166001436114a49190615a7b565b612028565b105b6114ea576040517f08c379a00000000000000000000000000000000000000000000000000000000081526004016114e190615b67565b60405180910390fd5b6117838160010180548060200260200160405190810160405280929190818152602001828054801561157157602002820191906000526020600020905b8160009054906101000a900473ffffffffffffffffffffffffffffffffffffffff1673ffffffffffffffffffffffffffffffffffffffff1681526020019060010190808311611527575b5050505050826002018054806020026020016040519081016040528092919081815260200182805480156115c457602002820191906000526020600020905b8154815260200190600101908083116115b0575b505050505061177984600301805480602002602001604051908101604052809291908181526020016000905b8282101561169c57838290600052602060002001805461160f9061575f565b80601f016020809104026020016040519081016040528092919081815260200182805461163b9061575f565b80156116885780601f1061165d57610100808354040283529160200191611688565b820191906000526020600020905b81548152906001019060200180831161166b57829003601f168201915b5050505050815260200190600101906115f0565b5050505085600401805480602002602001604051908101604052809291908181526020016000905b828210156117705783829060005260206000200180546116e39061575f565b80601f016020809104026020016040519081016040528092919081815260200182805461170f9061575f565b801561175c5780601f106117315761010080835404028352916020019161175c565b820191906000526020600020905b81548152906001019060200180831161173f57829003601f168201915b5050505050815260200190600101906116c4565b505050506127f7565b8460090154612933565b505050565b60006002600084815260200190815260200160002060080160008373ffffffffffffffffffffffffffffffffffffffff1673ffffffffffffffffffffffffffffffffffffffff16815260200190815260200160002060000160009054906101000a900460ff16905092915050565b60606040518060400160405280600181526020017f3100000000000000000000000000000000000000000000000000000000000000815250905090565b60008061183e6123cb565b905061185b848285604051806020016040528060008152506124cf565b91505092915050565b60008061186f6123cb565b90506118c186828787878080601f016020809104026020016040519081016040528093929190818152602001838380828437600081840152601f19601f820116905080830192505050505050506124cf565b915050949350505050565b60006118da8585858561294b565b9050949350505050565b60006064905090565b6000600354905090565b6118ff6109dc565b73ffffffffffffffffffffffffffffffffffffffff1661191d6123cb565b73ffffffffffffffffffffffffffffffffffffffff1614611973576040517f08c379a000000000000000000000000000000000000000000000000000000000815260040161196a90615710565b60405180910390fd5b61197c816129c6565b50565b600080600460009054906101000a900473ffffffffffffffffffffffffffffffffffffffff1673ffffffffffffffffffffffffffffffffffffffff1663d45c443560056000868152602001908152602001600020546040518263ffffffff1660e01b81526004016119f0919061554d565b602060405180830381865afa158015611a0d573d6000803e3d6000fd5b505050506040513d601f19601f82011682018060405250810190611a319190615838565b905060018114611a415780611a44565b60005b915050919050565b600090565b6000611aae600160008481526020019081526020016000206001016040518060200160405290816000820160009054906101000a900467ffffffffffffffff1667ffffffffffffffff1667ffffffffffffffff168152505061247c565b67ffffffffffffffff169050919050565b611ac76109dc565b73ffffffffffffffffffffffffffffffffffffffff16611ae56123cb565b73ffffffffffffffffffffffffffffffffffffffff1614611b3b576040517f08c379a0000000000000000000000000000000000000000000000000000000008152600401611b3290615710565b60405180910390fd5b611b8a8483838080601f016020809104026020016040519081016040528093929190818152602001838380828437600081840152601f19601f8201169050808301925050505050505085612a65565b5050505050565b600084848484604051602001611baa9493929190615b87565b6040516020818303038152906040528051906020012060001c9050949350505050565b6000600460009054906101000a900473ffffffffffffffffffffffffffffffffffffffff16905090565b6000611c0e611c046123cb565b8787878787612a94565b611c238686611c1d87876127f7565b856118cc565b905095945050505050565b60606040518060400160405280601a81526020017f737570706f72743d627261766f2671756f72756d3d627261766f000000000000815250905090565b6000600260008381526020019081526020016000209050611f1b81600101805480602002602001604051908101604052809291908181526020018280548015611d0957602002820191906000526020600020905b8160009054906101000a900473ffffffffffffffffffffffffffffffffffffffff1673ffffffffffffffffffffffffffffffffffffffff1681526020019060010190808311611cbf575b505050505082600201805480602002602001604051908101604052809291908181526020018280548015611d5c57602002820191906000526020600020905b815481526020019060010190808311611d48575b5050505050611f1184600301805480602002602001604051908101604052809291908181526020016000905b82821015611e34578382906000526020600020018054611da79061575f565b80601f0160208091040260200160405190810160405280929190818152602001828054611dd39061575f565b8015611e205780601f10611df557610100808354040283529160200191611e20565b820191906000526020600020905b815481529060010190602001808311611e0357829003601f168201915b505050505081526020019060010190611d88565b5050505085600401805480602002602001604051908101604052809291908181526020016000905b82821015611f08578382906000526020600020018054611e7b9061575f565b80601f0160208091040260200160405190810160405280929190818152602001828054611ea79061575f565b8015611ef45780601f10611ec957610100808354040283529160200191611ef4565b820191906000526020600020905b815481529060010190602001808311611ed757829003601f168201915b505050505081526020019060010190611e5c565b505050506127f7565b8460090154610c16565b505050565b7f150214d74d59b7d1e90c73fc22ef3d991dd0a76b046543d4d80ab92d2a50328f81565b611f4c613e79565b6002600084815260200190815260200160002060080160008373ffffffffffffffffffffffffffffffffffffffff1673ffffffffffffffffffffffffffffffffffffffff1681526020019081526020016000206040518060600160405290816000820160009054906101000a900460ff161515151581526020016000820160019054906101000a900460ff1660ff1660ff1681526020016000820160029054906101000a90046bffffffffffffffffffffffff166bffffffffffffffffffffffff166bffffffffffffffffffffffff1681525050905092915050565b60006120348383612b9b565b905092915050565b600061204782612c41565b9050919050565b7f000000000000000000000000000000000000000000000000000000000000000081565b60006002600083815260200190815260200160002090506123228160010180548060200260200160405190810160405280929190818152602001828054801561211057602002820191906000526020600020905b8160009054906101000a900473ffffffffffffffffffffffffffffffffffffffff1673ffffffffffffffffffffffffffffffffffffffff16815260200190600101908083116120c6575b50505050508260020180548060200260200160405190810160405280929190818152602001828054801561216357602002820191906000526020600020905b81548152602001906001019080831161214f575b505050505061231884600301805480602002602001604051908101604052809291908181526020016000905b8282101561223b5783829060005260206000200180546121ae9061575f565b80601f01602080910402602001604051908101604052809291908181526020018280546121da9061575f565b80156122275780601f106121fc57610100808354040283529160200191612227565b820191906000526020600020905b81548152906001019060200180831161220a57829003601f168201915b50505050508152602001906001019061218f565b5050505085600401805480602002602001604051908101604052809291908181526020016000905b8282101561230f5783829060005260206000200180546122829061575f565b80601f01602080910402602001604051908101604052809291908181526020018280546122ae9061575f565b80156122fb5780601f106122d0576101008083540402835291602001916122fb565b820191906000526020600020905b8154815290600101906020018083116122de57829003601f168201915b505050505081526020019060010190612263565b505050506127f7565b8460090154610eec565b505050565b6000600460009054906101000a900473ffffffffffffffffffffffffffffffffffffffff16905090565b60007f6e665ced000000000000000000000000000000000000000000000000000000007bffffffffffffffffffffffffffffffffffffffffffffffffffffffff1916827bffffffffffffffffffffffffffffffffffffffffffffffffffffffff191614806123c457506123c382612d08565b5b9050919050565b600033905090565b6123db6118e4565b81111561241d576040517f08c379a000000000000000000000000000000000000000000000000000000000815260040161241490615c79565b60405180910390fd5b60006003549050816003819055507f0553476bf02ef2726e8ce5ced78d63e26e602e4a2257b1f559418e24b4633997818360405161245c929190615a52565b60405180910390a15050565b6124758585858585612d82565b5050505050565b600081600001519050919050565b600061249d612497612e20565b83612f3a565b9050919050565b60008060006124b587878787612f6d565b915091506124c28161307a565b8192505050949350505050565b600080600160008781526020019081526020016000209050600160078111156124fb576124fa614e9b565b5b612504876113de565b600781111561251657612515614e9b565b5b14612556576040517f08c379a000000000000000000000000000000000000000000000000000000000815260040161254d90615d0b565b60405180910390fd5b60006125b4866125a5846000016040518060200160405290816000820160009054906101000a900467ffffffffffffffff1667ffffffffffffffff1667ffffffffffffffff168152505061247c565b67ffffffffffffffff16612028565b90506125c28787878461324f565b8573ffffffffffffffffffffffffffffffffffffffff167fb8e138887d0aa13bab447e82de9d5c1777041ecd21ca36ba824ff1e6c07ddda48887848860405161260e9493929190615d2b565b60405180910390a28092505050949350505050565b60008061262f83613479565b90506004600781111561264557612644614e9b565b5b81600781111561265857612657614e9b565b5b1461266657809150506127f2565b6000600560008581526020019081526020016000205490506000801b8114156126935781925050506127f2565b600460009054906101000a900473ffffffffffffffffffffffffffffffffffffffff1673ffffffffffffffffffffffffffffffffffffffff16632ab0f529826040518263ffffffff1660e01b81526004016126ee919061554d565b602060405180830381865afa15801561270b573d6000803e3d6000fd5b505050506040513d601f19601f8201168201806040525081019061272f9190615da3565b1561273f576007925050506127f2565b600460009054906101000a900473ffffffffffffffffffffffffffffffffffffffff1673ffffffffffffffffffffffffffffffffffffffff1663584b153e826040518263ffffffff1660e01b815260040161279a919061554d565b602060405180830381865afa1580156127b7573d6000803e3d6000fd5b505050506040513d601f19601f820116820180604052508101906127db9190615da3565b156127eb576005925050506127f2565b6002925050505b919050565b60606000825167ffffffffffffffff8111156128165761281561452e565b5b60405190808252806020026020018201604052801561284957816020015b60608152602001906001900390816128345790505b50905060005b845181101561292857600085828151811061286d5761286c615dd0565b5b602002602001015151146128dd5784818151811061288e5761288d615dd0565b5b6020026020010151805190602001208482815181106128b0576128af615dd0565b5b60200260200101516040516020016128c9929190615e5c565b6040516020818303038152906040526128f9565b8381815181106128f0576128ef615dd0565b5b60200260200101515b82828151811061290c5761290b615dd0565b5b60200260200101819052508061292190615e84565b905061284f565b508091505092915050565b60006129418585858561358e565b9050949350505050565b60006129b06129586123cb565b8686865167ffffffffffffffff8111156129755761297461452e565b5b6040519080825280602002602001820160405280156129a857816020015b60608152602001906001900390816129935790505b508787612a94565b6129bc85858585613680565b9050949350505050565b7f08f74ea46ef7894f65eabfb5e6e695de773a000b47c529ab559178069b226401600460009054906101000a900473ffffffffffffffffffffffffffffffffffffffff1682604051612a19929190615ecd565b60405180910390a180600460006101000a81548173ffffffffffffffffffffffffffffffffffffffff021916908373ffffffffffffffffffffffffffffffffffffffff16021790555050565b6060612a8b848484604051806060016040528060298152602001616acd60299139613980565b90509392505050565b6000818051906020012090506000612ab78787612ab188886127f7565b85611b91565b905060006002600083815260200190815260200160002090506000801b81600901541415612b9057888160000160006101000a81548173ffffffffffffffffffffffffffffffffffffffff021916908373ffffffffffffffffffffffffffffffffffffffff16021790555087816001019080519060200190612b3a929190613ead565b5086816002019080519060200190612b53929190613f37565b5085816003019080519060200190612b6c929190613f84565b5084816004019080519060200190612b85929190613fe4565b508281600901819055505b505050505050505050565b60007f000000000000000000000000000000000000000000000000000000000000000073ffffffffffffffffffffffffffffffffffffffff16633a46b1a884846040518363ffffffff1660e01b8152600401612bf8929190615ef6565b602060405180830381865afa158015612c15573d6000803e3d6000fd5b505050506040513d601f19601f82011682018060405250810190612c399190615838565b905092915050565b6000612c4b6118e4565b612c536118ed565b7f000000000000000000000000000000000000000000000000000000000000000073ffffffffffffffffffffffffffffffffffffffff16638e539e8c856040518263ffffffff1660e01b8152600401612cac9190614453565b602060405180830381865afa158015612cc9573d6000803e3d6000fd5b505050506040513d601f19601f82011682018060405250810190612ced9190615838565b612cf79190615f1f565b612d019190615fa8565b9050919050565b60007fbf26d897000000000000000000000000000000000000000000000000000000007bffffffffffffffffffffffffffffffffffffffffffffffffffffffff1916827bffffffffffffffffffffffffffffffffffffffffffffffffffffffff19161480612d7b5750612d7a82613a94565b5b9050919050565b600460009054906101000a900473ffffffffffffffffffffffffffffffffffffffff1673ffffffffffffffffffffffffffffffffffffffff1663e38335e5348686866000876040518763ffffffff1660e01b8152600401612de79594939291906158ad565b6000604051808303818588803b158015612e0057600080fd5b505af1158015612e14573d6000803e3d6000fd5b50505050505050505050565b60007f000000000000000000000000000000000000000000000000000000000000000073ffffffffffffffffffffffffffffffffffffffff163073ffffffffffffffffffffffffffffffffffffffff16148015612e9c57507f000000000000000000000000000000000000000000000000000000000000000046145b15612ec9577f00000000000000000000000000000000000000000000000000000000000000009050612f37565b612f347f00000000000000000000000000000000000000000000000000000000000000007f00000000000000000000000000000000000000000000000000000000000000007f0000000000000000000000000000000000000000000000000000000000000000613afe565b90505b90565b60008282604051602001612f4f929190616051565b60405160208183030381529060405280519060200120905092915050565b6000807f7fffffffffffffffffffffffffffffff5d576e7357a4501ddfe92f46681b20a08360001c1115612fa8576000600391509150613071565b601b8560ff1614158015612fc05750601c8560ff1614155b15612fd2576000600491509150613071565b600060018787878760405160008152602001604052604051612ff79493929190616088565b6020604051602081039080840390855afa158015613019573d6000803e3d6000fd5b505050602060405103519050600073ffffffffffffffffffffffffffffffffffffffff168173ffffffffffffffffffffffffffffffffffffffff16141561306857600060019250925050613071565b80600092509250505b94509492505050565b6000600481111561308e5761308d614e9b565b5b8160048111156130a1576130a0614e9b565b5b14156130ac5761324c565b600160048111156130c0576130bf614e9b565b5b8160048111156130d3576130d2614e9b565b5b1415613114576040517f08c379a000000000000000000000000000000000000000000000000000000000815260040161310b90616119565b60405180910390fd5b6002600481111561312857613127614e9b565b5b81600481111561313b5761313a614e9b565b5b141561317c576040517f08c379a000000000000000000000000000000000000000000000000000000000815260040161317390616185565b60405180910390fd5b600360048111156131905761318f614e9b565b5b8160048111156131a3576131a2614e9b565b5b14156131e4576040517f08c379a00000000000000000000000000000000000000000000000000000000081526004016131db90616217565b60405180910390fd5b6004808111156131f7576131f6614e9b565b5b81600481111561320a57613209614e9b565b5b141561324b576040517f08c379a0000000000000000000000000000000000000000000000000000000008152600401613242906162a9565b60405180910390fd5b5b50565b600060026000868152602001908152602001600020905060008160080160008673ffffffffffffffffffffffffffffffffffffffff1673ffffffffffffffffffffffffffffffffffffffff16815260200190815260200160002090508060000160009054906101000a900460ff16156132fd576040517f08c379a00000000000000000000000000000000000000000000000000000000081526004016132f49061633b565b60405180910390fd5b60018160000160006101000a81548160ff021916908315150217905550838160000160016101000a81548160ff021916908360ff16021790555061334083613b38565b8160000160026101000a8154816bffffffffffffffffffffffff02191690836bffffffffffffffffffffffff1602179055506000600281111561338657613385614e9b565b5b60ff168460ff1614156133b357828260060160008282546133a791906159fc565b92505081905550613471565b600160028111156133c7576133c6614e9b565b5b60ff168460ff1614156133f457828260050160008282546133e891906159fc565b92505081905550613470565b60028081111561340757613406614e9b565b5b60ff168460ff161415613434578282600701600082825461342891906159fc565b9250508190555061346f565b6040517f08c379a0000000000000000000000000000000000000000000000000000000008152600401613466906163cd565b60405180910390fd5b5b5b505050505050565b6000806001600084815260200190815260200160002090508060020160009054906101000a900460ff16156134b2576007915050613589565b8060020160019054906101000a900460ff16156134d3576002915050613589565b60006134de8461101f565b90506000811415613524576040517f08c379a000000000000000000000000000000000000000000000000000000000815260040161351b90616439565b60405180910390fd5b43811061353657600092505050613589565b600061354185611a51565b90504381106135565760019350505050613589565b61355f85613b93565b8015613570575061356f85613bcb565b5b156135815760049350505050613589565b600393505050505b919050565b60008061359d86868686613bf6565b90506000801b60056000838152602001908152602001600020541461367457600460009054906101000a900473ffffffffffffffffffffffffffffffffffffffff1673ffffffffffffffffffffffffffffffffffffffff1663c4d252f560056000848152602001908152602001600020546040518263ffffffff1660e01b815260040161362a919061554d565b600060405180830381600087803b15801561364457600080fd5b505af1158015613658573d6000803e3d6000fd5b5050505060056000828152602001908152602001600020600090555b80915050949350505050565b600061368a611a4c565b6136a03360014361369b9190615a7b565b612028565b10156136e1576040517f08c379a00000000000000000000000000000000000000000000000000000000081526004016136d8906164f1565b60405180910390fd5b60006136f68686868680519060200120611b91565b9050845186511461373c576040517f08c379a000000000000000000000000000000000000000000000000000000000815260040161373390616583565b60405180910390fd5b8351865114613780576040517f08c379a000000000000000000000000000000000000000000000000000000000815260040161377790616583565b60405180910390fd5b60008651116137c4576040517f08c379a00000000000000000000000000000000000000000000000000000000081526004016137bb906165ef565b60405180910390fd5b6000600160008381526020019081526020016000209050613824816000016040518060200160405290816000820160009054906101000a900467ffffffffffffffff1667ffffffffffffffff1667ffffffffffffffff1681525050613d4f565b613863576040517f08c379a000000000000000000000000000000000000000000000000000000000815260040161385a90616681565b60405180910390fd5b600061387561387061134a565b613d69565b61387e43613d69565b61388891906166b5565b9050600061389c613897610af2565b613d69565b826138a791906166b5565b90506138bf8284600001613dc090919063ffffffff16565b6138d58184600101613dc090919063ffffffff16565b7f7d84a6263ae0d98d3329bd7b46bb4e8d6f98cd35a7adb45c274c8b7fd5ebd5e0846138ff6123cb565b8b8b8d5167ffffffffffffffff81111561391c5761391b61452e565b5b60405190808252806020026020018201604052801561394f57816020015b606081526020019060019003908161393a5790505b508c88888e60405161396999989796959493929190616724565b60405180910390a183945050505050949350505050565b6060824710156139c5576040517f08c379a00000000000000000000000000000000000000000000000000000000081526004016139bc90616846565b60405180910390fd5b6139ce85613def565b613a0d576040517f08c379a0000000000000000000000000000000000000000000000000000000008152600401613a04906168b2565b60405180910390fd5b6000808673ffffffffffffffffffffffffffffffffffffffff168587604051613a3691906168d2565b60006040518083038185875af1925050503d8060008114613a73576040519150601f19603f3d011682016040523d82523d6000602084013e613a78565b606091505b5091509150613a88828286613e12565b92505050949350505050565b60007f01ffc9a7000000000000000000000000000000000000000000000000000000007bffffffffffffffffffffffffffffffffffffffffffffffffffffffff1916827bffffffffffffffffffffffffffffffffffffffffffffffffffffffff1916149050919050565b60008383834630604051602001613b199594939291906168e9565b6040516020818303038152906040528051906020012090509392505050565b60006bffffffffffffffffffffffff8016821115613b8b576040517f08c379a0000000000000000000000000000000000000000000000000000000008152600401613b82906169ae565b60405180910390fd5b819050919050565b6000806002600084815260200190815260200160002090508060050154613bc1613bbc8561101f565b61203c565b1115915050919050565b6000806002600084815260200190815260200160002090508060060154816005015411915050919050565b600080613c0586868686611b91565b90506000613c12826113de565b905060026007811115613c2857613c27614e9b565b5b816007811115613c3b57613c3a614e9b565b5b14158015613c6e575060066007811115613c5857613c57614e9b565b5b816007811115613c6b57613c6a614e9b565b5b14155b8015613c9e5750600780811115613c8857613c87614e9b565b5b816007811115613c9b57613c9a614e9b565b5b14155b613cdd576040517f08c379a0000000000000000000000000000000000000000000000000000000008152600401613cd490616a1a565b60405180910390fd5b600180600084815260200190815260200160002060020160016101000a81548160ff0219169083151502179055507f789cf55be980739dad1d0699b93b58e806b51c9d96619bfa8fe0a28abaa7b30c82604051613d3a9190614453565b60405180910390a18192505050949350505050565b600080826000015167ffffffffffffffff16149050919050565b600067ffffffffffffffff8016821115613db8576040517f08c379a0000000000000000000000000000000000000000000000000000000008152600401613daf90616aac565b60405180910390fd5b819050919050565b808260000160006101000a81548167ffffffffffffffff021916908367ffffffffffffffff1602179055505050565b6000808273ffffffffffffffffffffffffffffffffffffffff163b119050919050565b60608315613e2257829050613e72565b600083511115613e355782518084602001fd5b816040517f08c379a0000000000000000000000000000000000000000000000000000000008152600401613e699190614507565b60405180910390fd5b9392505050565b6040518060600160405280600015158152602001600060ff16815260200160006bffffffffffffffffffffffff1681525090565b828054828255906000526020600020908101928215613f26579160200282015b82811115613f255782518260006101000a81548173ffffffffffffffffffffffffffffffffffffffff021916908373ffffffffffffffffffffffffffffffffffffffff16021790555091602001919060010190613ecd565b5b509050613f339190614044565b5090565b828054828255906000526020600020908101928215613f73579160200282015b82811115613f72578251825591602001919060010190613f57565b5b509050613f809190614044565b5090565b828054828255906000526020600020908101928215613fd3579160200282015b82811115613fd2578251829080519060200190613fc2929190614061565b5091602001919060010190613fa4565b5b509050613fe091906140e7565b5090565b828054828255906000526020600020908101928215614033579160200282015b8281111561403257825182908051906020019061402292919061410b565b5091602001919060010190614004565b5b5090506140409190614191565b5090565b5b8082111561405d576000816000905550600101614045565b5090565b82805461406d9061575f565b90600052602060002090601f01602090048101928261408f57600085556140d6565b82601f106140a857805160ff19168380011785556140d6565b828001600101855582156140d6579182015b828111156140d55782518255916020019190600101906140ba565b5b5090506140e39190614044565b5090565b5b8082111561410757600081816140fe91906141b5565b506001016140e8565b5090565b8280546141179061575f565b90600052602060002090601f0160209004810192826141395760008555614180565b82601f1061415257805160ff1916838001178555614180565b82800160010185558215614180579182015b8281111561417f578251825591602001919060010190614164565b5b50905061418d9190614044565b5090565b5b808211156141b157600081816141a891906141f5565b50600101614192565b5090565b5080546141c19061575f565b6000825580601f106141d357506141f2565b601f0160209004906000526020600020908101906141f19190614044565b5b50565b5080546142019061575f565b6000825580601f106142135750614232565b601f0160209004906000526020600020908101906142319190614044565b5b50565b6000604051905090565b600080fd5b600080fd5b6000819050919050565b61425c81614249565b811461426757600080fd5b50565b60008135905061427981614253565b92915050565b6000602082840312156142955761429461423f565b5b60006142a38482850161426a565b91505092915050565b6142b581614249565b82525050565b600073ffffffffffffffffffffffffffffffffffffffff82169050919050565b60006142e6826142bb565b9050919050565b6142f6816142db565b82525050565b60008115159050919050565b614311816142fc565b82525050565b60006101408201905061432d600083018d6142ac565b61433a602083018c6142ed565b614347604083018b6142ac565b614354606083018a6142ac565b61436160808301896142ac565b61436e60a08301886142ac565b61437b60c08301876142ac565b61438860e08301866142ac565b614396610100830185614308565b6143a4610120830184614308565b9b9a5050505050505050505050565b60007fffffffff0000000000000000000000000000000000000000000000000000000082169050919050565b6143e8816143b3565b81146143f357600080fd5b50565b600081359050614405816143df565b92915050565b6000602082840312156144215761442061423f565b5b600061442f848285016143f6565b91505092915050565b600060208201905061444d6000830184614308565b92915050565b600060208201905061446860008301846142ac565b92915050565b600081519050919050565b600082825260208201905092915050565b60005b838110156144a857808201518184015260208101905061448d565b838111156144b7576000848401525b50505050565b6000601f19601f8301169050919050565b60006144d98261446e565b6144e38185614479565b93506144f381856020860161448a565b6144fc816144bd565b840191505092915050565b6000602082019050818103600083015261452181846144ce565b905092915050565b600080fd5b7f4e487b7100000000000000000000000000000000000000000000000000000000600052604160045260246000fd5b614566826144bd565b810181811067ffffffffffffffff821117156145855761458461452e565b5b80604052505050565b6000614598614235565b90506145a4828261455d565b919050565b600067ffffffffffffffff8211156145c4576145c361452e565b5b602082029050602081019050919050565b600080fd5b6145e3816142db565b81146145ee57600080fd5b50565b600081359050614600816145da565b92915050565b6000614619614614846145a9565b61458e565b9050808382526020820190506020840283018581111561463c5761463b6145d5565b5b835b81811015614665578061465188826145f1565b84526020840193505060208101905061463e565b5050509392505050565b600082601f83011261468457614683614529565b5b8135614694848260208601614606565b91505092915050565b600067ffffffffffffffff8211156146b8576146b761452e565b5b602082029050602081019050919050565b60006146dc6146d78461469d565b61458e565b905080838252602082019050602084028301858111156146ff576146fe6145d5565b5b835b818110156147285780614714888261426a565b845260208401935050602081019050614701565b5050509392505050565b600082601f83011261474757614746614529565b5b81356147578482602086016146c9565b91505092915050565b600067ffffffffffffffff82111561477b5761477a61452e565b5b602082029050602081019050919050565b600080fd5b600067ffffffffffffffff8211156147ac576147ab61452e565b5b6147b5826144bd565b9050602081019050919050565b82818337600083830152505050565b60006147e46147df84614791565b61458e565b905082815260208101848484011115614800576147ff61478c565b5b61480b8482856147c2565b509392505050565b600082601f83011261482857614827614529565b5b81356148388482602086016147d1565b91505092915050565b600061485461484f84614760565b61458e565b90508083825260208201905060208402830185811115614877576148766145d5565b5b835b818110156148be57803567ffffffffffffffff81111561489c5761489b614529565b5b8086016148a98982614813565b85526020850194505050602081019050614879565b5050509392505050565b600082601f8301126148dd576148dc614529565b5b81356148ed848260208601614841565b91505092915050565b6000819050919050565b614909816148f6565b811461491457600080fd5b50565b60008135905061492681614900565b92915050565b600080600080608085870312156149465761494561423f565b5b600085013567ffffffffffffffff81111561496457614963614244565b5b6149708782880161466f565b945050602085013567ffffffffffffffff81111561499157614990614244565b5b61499d87828801614732565b935050604085013567ffffffffffffffff8111156149be576149bd614244565b5b6149ca878288016148c8565b92505060606149db87828801614917565b91505092959194509250565b600081519050919050565b600082825260208201905092915050565b6000819050602082019050919050565b614a1c816142db565b82525050565b6000614a2e8383614a13565b60208301905092915050565b6000602082019050919050565b6000614a52826149e7565b614a5c81856149f2565b9350614a6783614a03565b8060005b83811015614a98578151614a7f8882614a22565b9750614a8a83614a3a565b925050600181019050614a6b565b5085935050505092915050565b600081519050919050565b600082825260208201905092915050565b6000819050602082019050919050565b614ada81614249565b82525050565b6000614aec8383614ad1565b60208301905092915050565b6000602082019050919050565b6000614b1082614aa5565b614b1a8185614ab0565b9350614b2583614ac1565b8060005b83811015614b56578151614b3d8882614ae0565b9750614b4883614af8565b925050600181019050614b29565b5085935050505092915050565b600081519050919050565b600082825260208201905092915050565b6000819050602082019050919050565b600082825260208201905092915050565b6000614bab8261446e565b614bb58185614b8f565b9350614bc581856020860161448a565b614bce816144bd565b840191505092915050565b6000614be58383614ba0565b905092915050565b6000602082019050919050565b6000614c0582614b63565b614c0f8185614b6e565b935083602082028501614c2185614b7f565b8060005b85811015614c5d5784840389528151614c3e8582614bd9565b9450614c4983614bed565b925060208a01995050600181019050614c25565b50829750879550505050505092915050565b600081519050919050565b600082825260208201905092915050565b6000819050602082019050919050565b600081519050919050565b600082825260208201905092915050565b6000614cc282614c9b565b614ccc8185614ca6565b9350614cdc81856020860161448a565b614ce5816144bd565b840191505092915050565b6000614cfc8383614cb7565b905092915050565b6000602082019050919050565b6000614d1c82614c6f565b614d268185614c7a565b935083602082028501614d3885614c8b565b8060005b85811015614d745784840389528151614d558582614cf0565b9450614d6083614d04565b925060208a01995050600181019050614d3c565b50829750879550505050505092915050565b60006080820190508181036000830152614da08187614a47565b90508181036020830152614db48186614b05565b90508181036040830152614dc88185614bfa565b90508181036060830152614ddc8184614d11565b905095945050505050565b600060ff82169050919050565b614dfd81614de7565b8114614e0857600080fd5b50565b600081359050614e1a81614df4565b92915050565b600080600080600060a08688031215614e3c57614e3b61423f565b5b6000614e4a8882890161426a565b9550506020614e5b88828901614e0b565b9450506040614e6c88828901614e0b565b9350506060614e7d88828901614917565b9250506080614e8e88828901614917565b9150509295509295909350565b7f4e487b7100000000000000000000000000000000000000000000000000000000600052602160045260246000fd5b60088110614edb57614eda614e9b565b5b50565b6000819050614eec82614eca565b919050565b6000614efc82614ede565b9050919050565b614f0c81614ef1565b82525050565b6000602082019050614f276000830184614f03565b92915050565b60008060408385031215614f4457614f4361423f565b5b6000614f528582860161426a565b9250506020614f63858286016145f1565b9150509250929050565b60008060408385031215614f8457614f8361423f565b5b6000614f928582860161426a565b9250506020614fa385828601614e0b565b9150509250929050565b600080fd5b60008083601f840112614fc857614fc7614529565b5b8235905067ffffffffffffffff811115614fe557614fe4614fad565b5b602083019150836001820283011115615001576150006145d5565b5b9250929050565b600080600080606085870312156150225761502161423f565b5b60006150308782880161426a565b945050602061504187828801614e0b565b935050604085013567ffffffffffffffff81111561506257615061614244565b5b61506e87828801614fb2565b925092505092959194509250565b600067ffffffffffffffff8211156150975761509661452e565b5b6150a0826144bd565b9050602081019050919050565b60006150c06150bb8461507c565b61458e565b9050828152602081018484840111156150dc576150db61478c565b5b6150e78482856147c2565b509392505050565b600082601f83011261510457615103614529565b5b81356151148482602086016150ad565b91505092915050565b600080600080608085870312156151375761513661423f565b5b600085013567ffffffffffffffff81111561515557615154614244565b5b6151618782880161466f565b945050602085013567ffffffffffffffff81111561518257615181614244565b5b61518e87828801614732565b935050604085013567ffffffffffffffff8111156151af576151ae614244565b5b6151bb878288016148c8565b925050606085013567ffffffffffffffff8111156151dc576151db614244565b5b6151e8878288016150ef565b91505092959194509250565b60006151ff826142bb565b9050919050565b6000615211826151f4565b9050919050565b61522181615206565b811461522c57600080fd5b50565b60008135905061523e81615218565b92915050565b60006020828403121561525a5761525961423f565b5b60006152688482850161522f565b91505092915050565b60008083601f84011261528757615286614529565b5b8235905067ffffffffffffffff8111156152a4576152a3614fad565b5b6020830191508360018202830111156152c0576152bf6145d5565b5b9250929050565b600080600080606085870312156152e1576152e061423f565b5b60006152ef878288016145f1565b94505060206153008782880161426a565b935050604085013567ffffffffffffffff81111561532157615320614244565b5b61532d87828801615271565b925092505092959194509250565b600060208201905061535060008301846142ed565b92915050565b600067ffffffffffffffff8211156153715761537061452e565b5b602082029050602081019050919050565b600061539561539084615356565b61458e565b905080838252602082019050602084028301858111156153b8576153b76145d5565b5b835b818110156153ff57803567ffffffffffffffff8111156153dd576153dc614529565b5b8086016153ea89826150ef565b855260208501945050506020810190506153ba565b5050509392505050565b600082601f83011261541e5761541d614529565b5b813561542e848260208601615382565b91505092915050565b600080600080600060a086880312156154535761545261423f565b5b600086013567ffffffffffffffff81111561547157615470614244565b5b61547d8882890161466f565b955050602086013567ffffffffffffffff81111561549e5761549d614244565b5b6154aa88828901614732565b945050604086013567ffffffffffffffff8111156154cb576154ca614244565b5b6154d788828901615409565b935050606086013567ffffffffffffffff8111156154f8576154f7614244565b5b615504888289016148c8565b925050608086013567ffffffffffffffff81111561552557615524614244565b5b615531888289016150ef565b9150509295509295909350565b615547816148f6565b82525050565b6000602082019050615562600083018461553e565b92915050565b615571816142fc565b82525050565b61558081614de7565b82525050565b60006bffffffffffffffffffffffff82169050919050565b6155a781615586565b82525050565b6060820160008201516155c36000850182615568565b5060208201516155d66020850182615577565b5060408201516155e9604085018261559e565b50505050565b600060608201905061560460008301846155ad565b92915050565b600080604083850312156156215761562061423f565b5b600061562f858286016145f1565b92505060206156408582860161426a565b9150509250929050565b6000819050919050565b600061566f61566a615665846142bb565b61564a565b6142bb565b9050919050565b600061568182615654565b9050919050565b600061569382615676565b9050919050565b6156a381615688565b82525050565b60006020820190506156be600083018461569a565b92915050565b7f476f7665726e6f723a206f6e6c79476f7665726e616e63650000000000000000600082015250565b60006156fa601883614479565b9150615705826156c4565b602082019050919050565b60006020820190508181036000830152615729816156ed565b9050919050565b7f4e487b7100000000000000000000000000000000000000000000000000000000600052602260045260246000fd5b6000600282049050600182168061577757607f821691505b6020821081141561578b5761578a615730565b5b50919050565b7f476f7665726e6f723a2070726f706f73616c206e6f742073756363657373667560008201527f6c00000000000000000000000000000000000000000000000000000000000000602082015250565b60006157ed602183614479565b91506157f882615791565b604082019050919050565b6000602082019050818103600083015261581c816157e0565b9050919050565b60008151905061583281614253565b92915050565b60006020828403121561584e5761584d61423f565b5b600061585c84828501615823565b91505092915050565b6000819050919050565b60008160001b9050919050565b600061589761589261588d84615865565b61586f565b6148f6565b9050919050565b6158a78161587c565b82525050565b600060a08201905081810360008301526158c78188614a47565b905081810360208301526158db8187614b05565b905081810360408301526158ef8186614d11565b90506158fe606083018561589e565b61590b608083018461553e565b9695505050505050565b60008151905061592481614900565b92915050565b6000602082840312156159405761593f61423f565b5b600061594e84828501615915565b91505092915050565b600060c08201905081810360008301526159718189614a47565b905081810360208301526159858188614b05565b905081810360408301526159998187614d11565b90506159a8606083018661589e565b6159b5608083018561553e565b6159c260a08301846142ac565b979650505050505050565b7f4e487b7100000000000000000000000000000000000000000000000000000000600052601160045260246000fd5b6000615a0782614249565b9150615a1283614249565b9250827fffffffffffffffffffffffffffffffffffffffffffffffffffffffffffffffff03821115615a4757615a466159cd565b5b828201905092915050565b6000604082019050615a6760008301856142ac565b615a7460208301846142ac565b9392505050565b6000615a8682614249565b9150615a9183614249565b925082821015615aa457615aa36159cd565b5b828203905092915050565b615ab881614de7565b82525050565b6000606082019050615ad3600083018661553e565b615ae060208301856142ac565b615aed6040830184615aaf565b949350505050565b7f476f7665726e6f72427261766f3a2070726f706f7365722061626f766520746860008201527f726573686f6c6400000000000000000000000000000000000000000000000000602082015250565b6000615b51602783614479565b9150615b5c82615af5565b604082019050919050565b60006020820190508181036000830152615b8081615b44565b9050919050565b60006080820190508181036000830152615ba18187614a47565b90508181036020830152615bb58186614b05565b90508181036040830152615bc98185614d11565b9050615bd8606083018461553e565b95945050505050565b7f476f7665726e6f72566f74657351756f72756d4672616374696f6e3a2071756f60008201527f72756d4e756d657261746f72206f7665722071756f72756d44656e6f6d696e6160208201527f746f720000000000000000000000000000000000000000000000000000000000604082015250565b6000615c63604383614479565b9150615c6e82615be1565b606082019050919050565b60006020820190508181036000830152615c9281615c56565b9050919050565b7f476f7665726e6f723a20766f7465206e6f742063757272656e746c792061637460008201527f6976650000000000000000000000000000000000000000000000000000000000602082015250565b6000615cf5602383614479565b9150615d0082615c99565b604082019050919050565b60006020820190508181036000830152615d2481615ce8565b9050919050565b6000608082019050615d4060008301876142ac565b615d4d6020830186615aaf565b615d5a60408301856142ac565b8181036060830152615d6c81846144ce565b905095945050505050565b615d80816142fc565b8114615d8b57600080fd5b50565b600081519050615d9d81615d77565b92915050565b600060208284031215615db957615db861423f565b5b6000615dc784828501615d8e565b91505092915050565b7f4e487b7100000000000000000000000000000000000000000000000000000000600052603260045260246000fd5b6000819050919050565b615e1a615e15826143b3565b615dff565b82525050565b600081905092915050565b6000615e3682614c9b565b615e408185615e20565b9350615e5081856020860161448a565b80840191505092915050565b6000615e688285615e09565b600482019150615e788284615e2b565b91508190509392505050565b6000615e8f82614249565b91507fffffffffffffffffffffffffffffffffffffffffffffffffffffffffffffffff821415615ec257615ec16159cd565b5b600182019050919050565b6000604082019050615ee260008301856142ed565b615eef60208301846142ed565b9392505050565b6000604082019050615f0b60008301856142ed565b615f1860208301846142ac565b9392505050565b6000615f2a82614249565b9150615f3583614249565b9250817fffffffffffffffffffffffffffffffffffffffffffffffffffffffffffffffff0483118215151615615f6e57615f6d6159cd565b5b828202905092915050565b7f4e487b7100000000000000000000000000000000000000000000000000000000600052601260045260246000fd5b6000615fb382614249565b9150615fbe83614249565b925082615fce57615fcd615f79565b5b828204905092915050565b600081905092915050565b7f1901000000000000000000000000000000000000000000000000000000000000600082015250565b600061601a600283615fd9565b915061602582615fe4565b600282019050919050565b6000819050919050565b61604b616046826148f6565b616030565b82525050565b600061605c8261600d565b9150616068828561603a565b602082019150616078828461603a565b6020820191508190509392505050565b600060808201905061609d600083018761553e565b6160aa6020830186615aaf565b6160b7604083018561553e565b6160c4606083018461553e565b95945050505050565b7f45434453413a20696e76616c6964207369676e61747572650000000000000000600082015250565b6000616103601883614479565b915061610e826160cd565b602082019050919050565b60006020820190508181036000830152616132816160f6565b9050919050565b7f45434453413a20696e76616c6964207369676e6174757265206c656e67746800600082015250565b600061616f601f83614479565b915061617a82616139565b602082019050919050565b6000602082019050818103600083015261619e81616162565b9050919050565b7f45434453413a20696e76616c6964207369676e6174757265202773272076616c60008201527f7565000000000000000000000000000000000000000000000000000000000000602082015250565b6000616201602283614479565b915061620c826161a5565b604082019050919050565b60006020820190508181036000830152616230816161f4565b9050919050565b7f45434453413a20696e76616c6964207369676e6174757265202776272076616c60008201527f7565000000000000000000000000000000000000000000000000000000000000602082015250565b6000616293602283614479565b915061629e82616237565b604082019050919050565b600060208201905081810360008301526162c281616286565b9050919050565b7f476f7665726e6f72436f6d7061746962696c697479427261766f3a20766f746560008201527f20616c7265616479206361737400000000000000000000000000000000000000602082015250565b6000616325602d83614479565b9150616330826162c9565b604082019050919050565b6000602082019050818103600083015261635481616318565b9050919050565b7f476f7665726e6f72436f6d7061746962696c697479427261766f3a20696e766160008201527f6c696420766f7465207479706500000000000000000000000000000000000000602082015250565b60006163b7602d83614479565b91506163c28261635b565b604082019050919050565b600060208201905081810360008301526163e6816163aa565b9050919050565b7f476f7665726e6f723a20756e6b6e6f776e2070726f706f73616c206964000000600082015250565b6000616423601d83614479565b915061642e826163ed565b602082019050919050565b6000602082019050818103600083015261645281616416565b9050919050565b7f476f7665726e6f72436f6d7061746962696c697479427261766f3a2070726f7060008201527f6f73657220766f7465732062656c6f772070726f706f73616c2074687265736860208201527f6f6c640000000000000000000000000000000000000000000000000000000000604082015250565b60006164db604383614479565b91506164e682616459565b606082019050919050565b6000602082019050818103600083015261650a816164ce565b9050919050565b7f476f7665726e6f723a20696e76616c69642070726f706f73616c206c656e677460008201527f6800000000000000000000000000000000000000000000000000000000000000602082015250565b600061656d602183614479565b915061657882616511565b604082019050919050565b6000602082019050818103600083015261659c81616560565b9050919050565b7f476f7665726e6f723a20656d7074792070726f706f73616c0000000000000000600082015250565b60006165d9601883614479565b91506165e4826165a3565b602082019050919050565b60006020820190508181036000830152616608816165cc565b9050919050565b7f476f7665726e6f723a2070726f706f73616c20616c726561647920657869737460008201527f7300000000000000000000000000000000000000000000000000000000000000602082015250565b600061666b602183614479565b91506166768261660f565b604082019050919050565b6000602082019050818103600083015261669a8161665e565b9050919050565b600067ffffffffffffffff82169050919050565b60006166c0826166a1565b91506166cb836166a1565b92508267ffffffffffffffff038211156166e8576166e76159cd565b5b828201905092915050565b600061670e616709616704846166a1565b61564a565b614249565b9050919050565b61671e816166f3565b82525050565b60006101208201905061673a600083018c6142ac565b616747602083018b6142ed565b8181036040830152616759818a614a47565b9050818103606083015261676d8189614b05565b905081810360808301526167818188614bfa565b905081810360a08301526167958187614d11565b90506167a460c0830186616715565b6167b160e0830185616715565b8181036101008301526167c481846144ce565b90509a9950505050505050505050565b7f416464726573733a20696e73756666696369656e742062616c616e636520666f60008201527f722063616c6c0000000000000000000000000000000000000000000000000000602082015250565b6000616830602683614479565b915061683b826167d4565b604082019050919050565b6000602082019050818103600083015261685f81616823565b9050919050565b7f416464726573733a2063616c6c20746f206e6f6e2d636f6e7472616374000000600082015250565b600061689c601d83614479565b91506168a782616866565b602082019050919050565b600060208201905081810360008301526168cb8161688f565b9050919050565b60006168de8284615e2b565b915081905092915050565b600060a0820190506168fe600083018861553e565b61690b602083018761553e565b616918604083018661553e565b61692560608301856142ac565b61693260808301846142ed565b9695505050505050565b7f53616665436173743a2076616c756520646f65736e27742066697420696e203960008201527f3620626974730000000000000000000000000000000000000000000000000000602082015250565b6000616998602683614479565b91506169a38261693c565b604082019050919050565b600060208201905081810360008301526169c78161698b565b9050919050565b7f476f7665726e6f723a2070726f706f73616c206e6f7420616374697665000000600082015250565b6000616a04601d83614479565b9150616a0f826169ce565b602082019050919050565b60006020820190508181036000830152616a33816169f7565b9050919050565b7f53616665436173743a2076616c756520646f65736e27742066697420696e203660008201527f3420626974730000000000000000000000000000000000000000000000000000602082015250565b6000616a96602683614479565b9150616aa182616a3a565b604082019050919050565b60006020820190508181036000830152616ac581616a89565b905091905056fe416464726573733a206c6f772d6c6576656c2063616c6c20776974682076616c7565206661696c6564a26469706673582212205bab776cd213aca928eddade64c134c60b80d4f2ac6151cece5d69b859c0d45964736f6c634300080b0033",
  "immutableReferences": {
    "3570": [
      {
        "length": 32,
        "start": 8272
      },
      {
        "length": 32,
        "start": 11167
      },
      {
        "length": 32,
        "start": 11349
      }
    ],
    "6580": [
      {
        "length": 32,
        "start": 11939
      }
    ],
    "6582": [
      {
        "length": 32,
        "start": 11898
      }
    ],
    "6584": [
      {
        "length": 32,
        "start": 11812
      }
    ],
    "6586": [
      {
        "length": 32,
        "start": 12015
      }
    ],
    "6588": [
      {
        "length": 32,
        "start": 12048
      }
    ],
    "6590": [
      {
        "length": 32,
        "start": 11982
      }
    ]
  },
  "source": "// SPDX-License-Identifier: MIT\npragma solidity ^0.8.2;\n\nimport \"@openzeppelin/contracts/governance/Governor.sol\";\nimport \"@openzeppelin/contracts/governance/compatibility/GovernorCompatibilityBravo.sol\";\nimport \"@openzeppelin/contracts/governance/extensions/GovernorVotes.sol\";\nimport \"@openzeppelin/contracts/governance/extensions/GovernorVotesQuorumFraction.sol\";\nimport \"@openzeppelin/contracts/governance/extensions/GovernorTimelockControl.sol\";\nimport \"@openzeppelin/contracts/token/ERC20/extensions/ERC20Votes.sol\";\n\ncontract MyGovernor is Governor, GovernorCompatibilityBravo, GovernorVotes, GovernorVotesQuorumFraction, GovernorTimelockControl {\n    constructor(ERC20Votes _token, TimelockController _timelock)\n        Governor(\"MyGovernor\")\n        GovernorVotes(_token)\n        GovernorVotesQuorumFraction(4)\n        GovernorTimelockControl(_timelock)\n    {}\n\n    function votingDelay() public pure override returns (uint256) {\n        return 6575; // 1 day\n    }\n\n    function votingPeriod() public pure override returns (uint256) {\n        return 46027; // 1 week\n    }\n\n    function proposalThreshold() public pure override returns (uint256) {\n        return 0;\n    }\n\n    // The functions below are overrides required by Solidity.\n\n    function quorum(uint256 blockNumber)\n        public\n        view\n        override(IGovernor, GovernorVotesQuorumFraction)\n        returns (uint256)\n    {\n        return super.quorum(blockNumber);\n    }\n\n    function getVotes(address account, uint256 blockNumber)\n        public\n        view\n        override(IGovernor, GovernorVotes)\n        returns (uint256)\n    {\n        return super.getVotes(account, blockNumber);\n    }\n\n    function state(uint256 proposalId)\n        public\n        view\n        override(Governor, IGovernor, GovernorTimelockControl)\n        returns (ProposalState)\n    {\n        return super.state(proposalId);\n    }\n\n    function propose(address[] memory targets, uint256[] memory values, bytes[] memory calldatas, string memory description)\n        public\n        override(Governor, GovernorCompatibilityBravo, IGovernor)\n        returns (uint256)\n    {\n        return super.propose(targets, values, calldatas, description);\n    }\n\n    function _execute(uint256 proposalId, address[] memory targets, uint256[] memory values, bytes[] memory calldatas, bytes32 descriptionHash)\n        internal\n        override(Governor, GovernorTimelockControl)\n    {\n        super._execute(proposalId, targets, values, calldatas, descriptionHash);\n    }\n\n    function _cancel(address[] memory targets, uint256[] memory values, bytes[] memory calldatas, bytes32 descriptionHash)\n        internal\n        override(Governor, GovernorTimelockControl)\n        returns (uint256)\n    {\n        return super._cancel(targets, values, calldatas, descriptionHash);\n    }\n\n    function _executor()\n        internal\n        view\n        override(Governor, GovernorTimelockControl)\n        returns (address)\n    {\n        return super._executor();\n    }\n\n    function supportsInterface(bytes4 interfaceId)\n        public\n        view\n        override(Governor, IERC165, GovernorTimelockControl)\n        returns (bool)\n    {\n        return super.supportsInterface(interfaceId);\n    }\n}",
  "sourcePath": "/home/dogperson/Code/TruffleTest/contracts/MyGovernor.sol",
  "compiler": {
    "name": "solc",
    "version": "0.8.11+commit.d7f03943.Emscripten.clang"
  },
  "schemaVersion": "3.4.4",
  "updatedAt": "2022-02-21T07:57:41.807Z",
  "networkType": "ethereum",
  "devdoc": {
    "kind": "dev",
    "methods": {
      "COUNTING_MODE()": {
        "details": "A description of the possible `support` values for {castVote} and the way these votes are counted, meant to be consumed by UIs to show correct vote options and interpret the results. The string is a URL-encoded sequence of key-value pairs that each describe one aspect, for example `support=bravo&quorum=for,abstain`. There are 2 standard keys: `support` and `quorum`. - `support=bravo` refers to the vote options 0 = Against, 1 = For, 2 = Abstain, as in `GovernorBravo`. - `quorum=bravo` means that only For votes are counted towards quorum. - `quorum=for,abstain` means that both For and Abstain votes are counted towards quorum. NOTE: The string can be decoded by the standard https://developer.mozilla.org/en-US/docs/Web/API/URLSearchParams[`URLSearchParams`] JavaScript class."
      },
      "cancel(uint256)": {
        "details": "Cancels a proposal only if sender is the proposer, or proposer delegates dropped below proposal threshold."
      },
      "castVote(uint256,uint8)": {
        "details": "See {IGovernor-castVote}."
      },
      "castVoteBySig(uint256,uint8,uint8,bytes32,bytes32)": {
        "details": "See {IGovernor-castVoteBySig}."
      },
      "castVoteWithReason(uint256,uint8,string)": {
        "details": "See {IGovernor-castVoteWithReason}."
      },
      "execute(address[],uint256[],bytes[],bytes32)": {
        "details": "See {IGovernor-execute}."
      },
      "execute(uint256)": {
        "details": "See {IGovernorCompatibilityBravo-execute}."
      },
      "getActions(uint256)": {
        "details": "See {IGovernorCompatibilityBravo-getActions}."
      },
      "getReceipt(uint256,address)": {
        "details": "See {IGovernorCompatibilityBravo-getReceipt}."
      },
      "hasVoted(uint256,address)": {
        "details": "See {IGovernor-hasVoted}."
      },
      "hashProposal(address[],uint256[],bytes[],bytes32)": {
        "details": "See {IGovernor-hashProposal}. The proposal id is produced by hashing the RLC encoded `targets` array, the `values` array, the `calldatas` array and the descriptionHash (bytes32 which itself is the keccak256 hash of the description string). This proposal id can be produced from the proposal data which is part of the {ProposalCreated} event. It can even be computed in advance, before the proposal is submitted. Note that the chainId and the governor address are not part of the proposal id computation. Consequently, the same proposal (with same operation and same description) will have the same id if submitted on multiple governors accross multiple networks. This also means that in order to execute the same operation twice (on the same governor) the proposer will have to change the description in order to avoid proposal id conflicts."
      },
      "name()": {
        "details": "See {IGovernor-name}."
      },
      "proposalDeadline(uint256)": {
        "details": "See {IGovernor-proposalDeadline}."
      },
      "proposalEta(uint256)": {
        "details": "Public accessor to check the eta of a queued proposal"
      },
      "proposalSnapshot(uint256)": {
        "details": "See {IGovernor-proposalSnapshot}."
      },
      "proposalThreshold()": {
        "details": "Part of the Governor Bravo's interface: _\"The number of votes required in order for a voter to become a proposer\"_."
      },
      "proposals(uint256)": {
        "details": "See {IGovernorCompatibilityBravo-proposals}."
      },
      "propose(address[],uint256[],string[],bytes[],string)": {
        "details": "See {IGovernorCompatibilityBravo-propose}."
      },
      "queue(address[],uint256[],bytes[],bytes32)": {
        "details": "Function to queue a proposal to the timelock."
      },
      "queue(uint256)": {
        "details": "See {IGovernorCompatibilityBravo-queue}."
      },
      "quorumDenominator()": {
        "details": "Returns the quorum denominator. Defaults to 100, but may be overridden."
      },
      "quorumNumerator()": {
        "details": "Returns the current quorum numerator. See {quorumDenominator}."
      },
      "quorumVotes()": {
        "details": "See {IGovernorCompatibilityBravo-quorumVotes}."
      },
      "relay(address,uint256,bytes)": {
        "details": "Relays a transaction or function call to an arbitrary target. In cases where the governance executor is some contract other than the governor itself, like when using a timelock, this function can be invoked in a governance proposal to recover tokens or Ether that was sent to the governor contract by mistake. Note that if the executor is simply the governor itself, use of `relay` is redundant."
      },
      "timelock()": {
        "details": "Public accessor to check the address of the timelock"
      },
      "updateQuorumNumerator(uint256)": {
        "details": "Changes the quorum numerator. Emits a {QuorumNumeratorUpdated} event. Requirements: - Must be called through a governance proposal. - New numerator must be smaller or equal to the denominator."
      },
      "updateTimelock(address)": {
        "details": "Public endpoint to update the underlying timelock instance. Restricted to the timelock itself, so updates must be proposed, scheduled, and executed through governance proposals. CAUTION: It is not recommended to change the timelock while there are other queued governance proposals."
      },
      "version()": {
        "details": "See {IGovernor-version}."
      },
      "votingDelay()": {
        "details": "Delay, in number of block, between the proposal is created and the vote starts. This can be increassed to leave time for users to buy voting power, of delegate it, before the voting of a proposal starts."
      },
      "votingPeriod()": {
        "details": "Delay, in number of blocks, between the vote start and vote ends. NOTE: The {votingDelay} can delay the start of the vote. This must be considered when setting the voting duration compared to the voting delay."
      }
    },
    "version": 1
  },
  "userdoc": {
    "kind": "user",
    "methods": {
      "COUNTING_MODE()": {
        "notice": "module:voting"
      },
      "votingDelay()": {
        "notice": "module:user-config"
      },
      "votingPeriod()": {
        "notice": "module:user-config"
      }
    },
    "version": 1
  }
}